:10000000011004001E000000403B0000FF00000043
:10001000021D33E4FF12145822FFFF0235F83000AE
:100020000D7F011238B09001217401F0800B7F0127
:100030001237789001217402F075BF0F43B9205335
:10004000B9FD43BA0143B901D2D822022909AB074D
:10005000AA06D3EB9DEA9C4007EB9DFFEA9CFE229B
:10006000C3ED9BFFEC9AFE22FFFFFF0224ACBB0115
:100070000689828A83E0225002E722BBFE02E32245
:1000800089828A83E49322EF8DF0A4A8F0CF8CF0CC
:10009000A428CE8DF0A42EFE22C5F0F8A3E028F00F
:1000A000C5F0F8E582158270021583E038F022EF82
:1000B0002BFFEE3AFEED39FDEC38FC22C3EF9BFF3F
:1000C000EE9AFEED99FDEC98FC22E88FF0A4CC8B23
:1000D000F0A42CFCE98EF0A42CFC8AF0EDA42CFCFE
:1000E000EA8EF0A4CDA8F08BF0A42DCC3825F0FD3D
:1000F000E98FF0A42CCD35F0FCEB8EF0A4FEA9F036
:10010000EB8FF0A4CFC5F02ECD39FEE43CFCEAA481
:100110002DCE35F0FDE43CFC2275F008758200EF31
:100120002FFFEE33FECD33CDCC33CCC58233C58229
:100130009BED9AEC99E58298400CF582EE9BFEEDE2
:100140009AFDEC99FC0FD5F0D6E4CEFBE4CDFAE4B1
:10015000CCF9A88222B800C1B90059BA002DEC8BA5
:10016000F084CFCECDFCE5F0CBF97818EF2FFFEE81
:1001700033FEED33FDEC33FCEB33FB10D70399403A
:1001800004EB99FB0FD8E5E4F9FA227818EF2FFF7A
:10019000EE33FEED33FDEC33FCC933C910D7059BBC
:1001A000E99A4007EC9BFCE99AF90FD8E0E4C9FA18
:1001B000E4CCFB2275F010EF2FFFEE33FEED33FDA4
:1001C000CC33CCC833C810D7079BEC9AE899400AC7
:1001D000ED9BFDEC9AFCE899F80FD5F0DAE4CDFB45
:1001E000E4CCFAE4C8F922EB9FF5F0EA9E42F0E98C
:1001F0009D42F0EC6480C864809845F022EB9FF546
:10020000F0EA9E42F0E99D42F0E89C45F022E86069
:100210000FECC313FCED13FDEE13FEEF13FFD8F14B
:1002200022E86010ECA2E713FCED13FDEE13FEEFE5
:1002300013FFD8F022E8600FEFC333FFEE33FEED7B
:1002400033FDEC33FCD8F122BB010789828A83029B
:1002500002AF5005E9F80203BBBBFE05E9F8020254
:10026000BB22E6FC08E6FD08E6FE08E6FF22E0FC0D
:10027000A3E0FDA3E0FEA3E0FF22E2FC08E2FD080C
:10028000E2FE08E2FF22E0F8A3E0F9A3E0FAA3E02F
:10029000FB22E2FB08E2F908E2FA08E2CBF822BB13
:1002A000010789828A830202765005E9F802039EDB
:1002B000BBFE05E9F802028289828A830203ABEC65
:1002C000F0A3EDF0A3EEF0A3EFF022ECF208EDF2D4
:1002D00008EEF208EFF222A8828583F0D083D08264
:1002E0001202DE1202DE1202DE1202DEE473E49378
:1002F000A3C583C5F0C583C8C582C8F0A3C583C59F
:10030000F0C583C8C582C822D083D082E493F208A6
:10031000740193F208740293F208740393F2740464
:1003200073A42582F582E5F03583F58322FAE6FB96
:100330000808E6F925F0F618E6CA3AF622E0FBA32B
:10034000E0FAA3E0F922EBF0A3EAF0A3E9F022E45B
:1003500093FB740193FA740293F922D083D082F84C
:10036000E4937012740193700DA3A393F874019336
:10037000F5828883E4737402936860EFA3A3A3807B
:10038000DFEC8EF0A4CCC5F0CCCDF8EFA4CEC5F058
:100390002DFDE43CFCE8A42EC8C5F03DFDE43CFC8A
:1003A000EFA4FFE5F028FEE43DFDE43CFC22E6FB83
:1003B00008E6F908E6FA08E6CBF822E493F87401B7
:1003C00093F9740293FA740393FB22ECF608EDF6AA
:1003D00008EEF608EFF622AB07E4900158F0A312FE
:1003E00002C700000000EB70030204CB1239CCE41A
:1003F000900156F0900156E0FFC39401501DEF2587
:10040000E025E024EBF582E43400F5831202C70016
:10041000000000900156E004F080D9123960E490A9
:100420000156F0900156E0FFC39401503DEF25E0E6
:1004300025E024EBF582E43400F583C083C082120A
:100440000276C000900156E0242AF582E43401F5DA
:1004500083E0FF123301D00012009FD082D08312BC
:1004600002AF900156E004F080B9900158E004F02A
:10047000E0C3940540A5E4900156F0900156E0FBDE
:10048000C394015056742D2BF8E6FFE4FCFDFEEBFF
:1004900025E025E024EBF582E43400F583120276B2
:1004A0001200BAC007900158E0FFFBE4FAF9F8D057
:1004B0000712014578071201FE9001591202AF9010
:1004C000015912025E900156E025E025E0242EF845
:1004D0001202BB900156E004F080A0E4900156F0B7
:1004E000E4900157F0900156E0FB25E025E0242E32
:1004F000F812026AEB75F014A424ACF582E434001F
:10050000F583C083C082900157E0D082D08375F01C
:10051000041203111202AF900157E004F0E0B40599
:10052000C4900156E025E025E0242EF812026AE48A
:100530007B05FAF9F81200BA900156E0FB25E02598
:10054000E024C0F582E43400F5831202AFEB25E02D
:1005500025E024C0F582E43400F58312025EC00475
:10056000C005C006C0079001611202C7000100006B
:10057000900156E025E025E02490F582E43400F572
:100580008312025E9001651202AFD007D006D0053B
:10059000D00412219C900156E0FB25E025E024C404
:1005A000F582E43400F5831202AFEB25E025E02468
:1005B000C4F582E43400F58312025EEF24D0FFEE2E
:1005C000348AFEED34FFFDEC34FFFCEB25E025E042
:1005D00024A8F582E43400F5831202AFEB25E02471
:1005E000C8F582E43400F5837475F0A37430F0EB41
:1005F00025E024CAF582E43400F5837475F0A37411
:1006000030F0EB25E024CAF582E43400F583E0FE07
:10061000A3E0FFE4FCFD7804120225EB25E025E0D1
:1006200024CCF582E43400F5831202AFEB25E024FC
:1006300032F87475F2087430F2EB25E02436F8E4F1
:10064000F208F2EB25E02434F87475F2087430F205
:10065000EB25E025E024EBF582E43400F58312027B
:10066000C700000000EB25E024F1F582E43400F53A
:1006700083E4F0A3F09000D0F0900157F090015681
:10068000E0FB25E025E024C0F582E43400F5831288
:10069000025EEB75F014A424D1F582E43400F583F6
:1006A000C083C082900157E0D082D08375F00412DD
:1006B00003111202AF900157E004F0E0B405BEE46C
:1006C0009000E5F0900156E0FB25E025E024C0F520
:1006D00082E43400F58312025EEB25E025E024E697
:1006E000F582E43400F5831202AF900156E025E074
:1006F000241AF582E43401F583E4F0A3F090015666
:10070000E004F0E0C3940150030204D022E490011D
:1007100053F0900153E0FB25E025E024C0F582E48E
:100720003400F58312025E9001581202AF90015816
:1007300012025EEB75F014A424ACF582E43400F5EB
:1007400083C083C0829000D0E0D082D08375F00453
:100750001203111202761200AC9001581202AF90EF
:10076000015812025E900153E025E025E0242EF8A6
:1007700012028212009F9001581202AF900153E0C2
:10078000FB25E025E0242EF812026AEB75F014A494
:1007900024ACF582E43400F583C083C0829000D09D
:1007A000E0D082D08375F0041203111202AF9001E1
:1007B0005812025E900153E025E025E024C0F58246
:1007C000E43400F5831202AF900153E004F0E064DA
:1007D0000160030207029000D0E004F0E075F0052C
:1007E00084E5F0F0E4900153F0900153E0FFC394EE
:1007F000014003020A15EF25E025E024C0F582E45C
:100800003400F58312025EC004C005C006C0079024
:1008100001611202C700010000900153E025E025AC
:10082000E02490F582E43400F58312025E900165C5
:100830001202AFD007D006D005D00412219C90013F
:1008400053E0FB25E025E024C4F582E43400F58381
:100850001202AFEB25E025E024A8F582E43400F590
:100860008312025EAB07AA06A905A804900153E013
:1008700025E025E024C4F582E43400F58312025E0D
:100880001200AC9001541202AFE4FFFEFDFC900197
:1008900054120276C31201D750037F0222E47FFF75
:1008A0007EFFFDFC900154120276D31201D7400A5C
:1008B0009001541202C70000FFFF90015412025E23
:1008C000900153E0FD25E024C8F582E43400F5836F
:1008D000EEF0A3EFF0ED25E024CAF582E43400F554
:1008E00083E0FEA3E0FFED25E024C8F582E43400B8
:1008F000F583E0FCA3E0FD12003EAC06AD079001DD
:1009000053E0FB25E02496F582E43436F583E49346
:10091000C313FE74019313FFD3ED9FEC9E405390DD
:100920000153E0FF25E024C8F582E43400F583E0BC
:10093000FCA3E0FDEF25E024CAF582E43400F58352
:10094000ECF0A3EDF0EB25E024C8F582E43400F5EB
:1009500083E0FEA3E0FFE4FCFD7804120225EB2512
:10096000E025E024CCF582E43400F5831202AF02E6
:1009700009ED300645900153E075F004A424CCF94C
:10098000740035F0FA7B01E025E024C8F582E434F8
:1009900000F583E0FEA3E0FFE4FCFD900163740436
:1009A000F0122FF6900153E025E024CAF582E434DA
:1009B00000F583EEF0A3EFF08043900153E075F073
:1009C00004A424CCF9740035F0FA7B01E025E0247E
:1009D000C8F582E43400F583E0FEA3E0FFE4FCFD0B
:1009E0009001637420F0122FF6900153E025E0246B
:1009F000CAF582E43400F583EEF0A3EFF0900153E2
:100A0000E0FF25E024CAF582E43400F583E0F8A392
:100A1000E0FDEF25E02432C8F208EDF2900153E04A
:100A200004F00207D97F0622900153EEF0A3EFF005
:100A3000E4900156F0A3F0A3F090011FE0FFA3E0C3
:100A4000900157CFF0A3EFF0E4900155F0900155DD
:100A5000E0FBC394024003020BBB9001A0E07016C0
:100A600090011CE0B4050FD390010FE094009001B9
:100A70000EE09400402C900155E0FF25E0245BF54A
:100A800082E43400F583E4F0A3F0EF25E025E024D0
:100A90004FF582E43400F5831202C7000000000223
:100AA0000BB2EB25E0245BF582E43400F583E0FE35
:100AB000A3E04E7022900155E0FF25E02410F8E2FB
:100AC000FC08E2FDEF25E02457F582E43400F583CD
:100AD000ECF0A3EDF08079900155E0FD25E024577E
:100AE000F582E43400F583E0FEA3E0FFED25E02489
:100AF00010F8E2FC08E2FD12003EC3900158E09FAE
:100B0000900157E09E5049900155E0FF25E02410E8
:100B1000F8E2FC08E2FDEF25E02457F582E434001A
:100B2000F583ECF0A3EDF0900155E0FF25E0245BA8
:100B3000F582E43400F583E4F0A3F0EF25E025E04E
:100B4000244FF582E43400F5831202C70000000050
:100B5000900155E0FF25E02410F8E2FC08E2FDEFEB
:100B600025E025E0244FF582E43400F583C083C0FE
:100B700082120276AE04AF05E4FCFD12009FD08223
:100B8000D0831202AF900155E0FF25E0245BF5828F
:100B9000E43400F583E475F001120089EF25E024C8
:100BA0005BF582E43400F583E0FEA3E0FF9001539F
:100BB000E0FCA3E0FDC3EF9DEE9C4006900156E0F3
:100BC00004F0900155E004F0020A3D900156E06403
:100BD000026003020C44900155F0900155E0FFC300
:100BE00094025070EF25E0245BF582E43400F58335
:100BF000E0FEA3E0FF4E605CAB07AA06E4F9F890C4
:100C00000155E025E025E0244FF582E43400F5832A
:100C100012025E120145900155E0FD25E02414F812
:100C2000EEF208EFF2ED25E0245BF582E43400F506
:100C300083E4F0A3F0ED25E025E0244FF582E434D1
:100C400000F5831202C700000000C218900155E0B1
:100C500004F0808622900153EEF0A3EFF0E4A3F0BD
:100C6000900155E0FFC394014003020E6174017EC0
:100C700000A807088005C333CE33CED8F9FF900112
:100C8000A2E0FDE4FAEF5DFB703A900155E0FF242D
:100C90001DF582E43401F583E0B4052874EA2FF5EC
:100CA00082E43400F583E0707A900155E025E02479
:100CB00010F582E43401F583E0FEA3E0D39400EE66
:100CC0009400405F900155E0FF25E024F1F582E4B7
:100CD0003400F583E4F0A3F0EF25E025E024EBF504
:100CE00082E43400F5831202C70000000090008007
:100CF00012025E90007C1202AFEB4A7003020E58A3
:100D0000900155E0FF25E02412F582E43401F583DB
:100D1000E4F0A3F074012FF582E43401F583E4F0EC
:100D2000020E58900155E025E025E024EBF582E421
:100D30003400F583C083C082120276C00090015552
:100D4000E025E02432F8E2FE08E2FFE4FCFDD000FA
:100D500012009FD082D0831202AF900155E0FF2590
:100D6000E024F1F582E43400F583E475F00112002B
:100D700089EF25E024F1F582E43400F583E0FEA359
:100D8000E0FF900153E0FCA3E0FDC3EF9DEE9C501B
:100D90004A90007C12025E90015A1202AF900080CD
:100DA00012025E123740E47B78FAF9F8C31201EDC3
:100DB0004029A20A300601B34021900155E0FF24EA
:100DC000EAF582E43400F583E0701074012FF582B7
:100DD000E43401F583E07003020E58900155E025DC
:100DE000E024F1F582E43400F583E0FEA3E0FFFBAC
:100DF000AA06E4F9F8900155E025E025E024EBF59A
:100E000082E43400F58312025E120145900155E040
:100E1000FD25E02434F8EEF208EFF2ED25E024F1B0
:100E2000F582E43400F583E4F0A3F0ED25E025E05D
:100E300024EBF582E43400F5831202C700000000C1
:100E400090008012025E90007C1202AF900155E08B
:100E5000FF24EAF582E43400F583E4F074012FF511
:100E600082E43401F583E4F0900155E004F0020CD3
:100E70005022E4900152F0900152E0FE75F008A477
:100E8000243AFBEE25E025E02408F812026A7804F3
:100E90001201FEAD07AC06AF03123B0A900152E00F
:100EA000FE75F008A42438FFEE25E02418F8E2FCD3
:100EB00008E2FD123B0A900152E0FE75F008A424FE
:100EC00036FFEE25E0241CF8E2FC08E2FD123B0AA6
:100ED000900152E004F0E0C39402409B7F4AC007B7
:100EE0009000C012025E78041201FEAD07AC06D07D
:100EF00007123B0A7F46C0079000C412025E7804C6
:100F00001201FEAD07AC06D007123B0A7F52C007A4
:100F100090008012025E78041201FEAD07AC06D08C
:100F200007123B0A7F4EC00790009012025E7801C4
:100F30001201FEAD07AC06D007123B0AE490015245
:100F4000F0900152E0FEC454F02454FFEE25E0245A
:100F500096F582E43436F583E493FC740193FD1234
:100F60003B0A900152E0FEC454F02456FFEE25E007
:100F70002496F582E43436F58374019324E2FDE48B
:100F80009334FFFC123B0A900152E0C454F0245801
:100F9000FF7D647C00123B0A900152E0FEC454F0D5
:100FA000245EFFEE25E02432F8E2FC08E2FD123B6D
:100FB0000A900152E0FB25E025E024C0F582E434EC
:100FC00000F58312025E780A1201FEEBC454F0248D
:100FD00062F8A607300F3E900152E0C454F024603E
:100FE000FFC007782012026AAD07AC06D007123B9B
:100FF0000A900152E0C454F0245AFF7D397C30122B
:101000003B0A900152E0C454F0245CFF7D397C30EF
:10101000123B0A804B900152E0FEC454F02460FF62
:10102000EE25E02434F8E2FC08E2FD123B0A9001D0
:1010300052E0FEC454F0245AFFEE25E02438F8E2D2
:10104000FC08E2FD123B0A900152E0FEC454F02479
:101050005CFFEE25E02436F8E2FC08E2FD123B0AD4
:10106000900152E004F0E0C394015003020F317884
:1010700027E6F52222E4900157F0EF60631239CCA5
:101080009000991202C70000000012396090009988
:10109000120276C000900126E0FF123301D0001248
:1010A000009F9000991202AF900157E004F0E0C356
:1010B000940540D6782CE6FFE4FCFDFE90009912E2
:1010C00002761200BAC007900157E0FFFBE4FAF97C
:1010D000F8D00712014578071201FE78241202BBEE
:1010E000E4900156F0900156E0FBC39405501E7841
:1010F0002412026AEB25E025E02464F582E4340042
:10110000F5831202AF900156E004F080D8E47F0529
:10111000FEFDFC78241202821200BA9000781202BE
:10112000AF90007812025E9000801202AF900078BB
:1011300012025E78041202259000841202AF900021
:101140008012025E90007C1202AFE4900156F09093
:101150000156E0FFC394014003021235EF25E0255C
:10116000E02490F582E43400F58312025EE4FBFA99
:10117000F9F8C31201ED600302122C9000801202F4
:101180005E9000881202AF90008812025EAB07AA40
:1011900006A905A804900156E025E024BEF582E4E6
:1011A0003436F583E493FE740193FFEE3395E0FD4E
:1011B000FC1200BA780A120211900156E0FB25E0F9
:1011C00025E0248CF582E43400F5831202AFEB2590
:1011D000E025E0248CF582E43400F58312025E9071
:1011E000008812027612009FC004C005C006C00726
:1011F000900156E025E025E0248CF582E43400F5EA
:101200008312025E90008012027612009F900161AC
:101210001202AF9001651202C700010000D007D092
:1012200006D005D00412219C900156E025E025E06F
:101230002490F582E43400F5831202AF900156E069
:1012400004F002113F90008012025EEF24D0FFEE06
:10125000348AFEED34FFFDEC34FFFC900094120262
:10126000AF78287475F2087430F2E4900098F02298
:10127000E4900152F0A3F0A3F0FCA3F020CA030213
:1012800014577896E67003021457E4900152F090D8
:101290000152E0FE2496F8E6FD74962EF582E434C1
:1012A00001F583EDF0E4F6900152E004F0E0B40AB9
:1012B000DE900196E0FE54F0FCEE540F900155F0E4
:1012C000AF04EF12034B12D25012DC6012E6701220
:1012D000F080136E90141FA0139FB01454C0000030
:1012E00014577827E64401F61235AC227827E654E5
:1012F000FEF61235AC22E4FF123A617829A60722E5
:10130000900197E07F00FE900153F0A3EFF0900171
:1013100098E0FDEEEDFF900153EEF0A3EFF0D394D3
:101320000AEE94004003021457900155E0FFB40FF9
:101330002DE4900152F0900152E0FEC3940240036C
:10134000021457A3E0FCA3E0FDEE75F008A42434DA
:10135000F8A60408A605900152E004F080D8EFC377
:1013600094024003021457900153E0FEA3E0FFA350
:10137000E075F008A42434F8A60608A60722900118
:1013800055E0FF70117827E6FE20E1030214575460
:10139000FDF6751C0222EF640160030214577827E2
:1013A000E6FF30E1030214574402F6751C02229056
:1013B0000155E0FF703A7827E654DFF6E4900152D9
:1013C000F0900152E0FE25E0248EF582E43436F5FB
:1013D00083E493FC740193FDEE75F008A42434F8C3
:1013E000A60408A605900152E004F0E0B402D2225F
:1013F000EF640170727827E64420F6E4900152F021
:10140000900152E0FF25E024A6F582E43436F5830E
:10141000E493FC740193FDEF75F008A42434F8A65E
:101420000408A605900152E004F0E0B402D2229034
:101430000155E0FD70157827E6FE30E22A54FBF6F0
:1014400090011EE04408F0751C0222EDB4011878EA
:1014500027E6FF20E2114404F690011EE04404F068
:10146000751C02221235AC22E4900154F0EF700397
:101470000215561239CCE4900153F0900153E0FF6D
:10148000C39402501DEF25E025E0244FF582E4349B
:1014900000F5831202C700000000900153E004F041
:1014A00080D9123960E4900153F0900153E0FFC3FA
:1014B0009402503DEF25E025E0244FF582E434000E
:1014C000F583C083C082120276C000900153E024ED
:1014D00022F582E43401F583E0FF123301D00012DB
:1014E000009FD082D0831202AF900153E004F080BD
:1014F000B9900154E004F0E0C3940540A5E49001E4
:1015000053F0900154E0FFFBE4FAF9F8900153E046
:1015100025E025E0244FF582E43400F58312025ED5
:10152000120145C004A905AA06AB07900153E024A7
:101530002AF8E6FFE4FCFDFED0001200BA90015547
:101540001202AF90015512025E78071201FE90015F
:1015500053E025E025E02408F81202BB900153E097
:1015600004F0E0B4029CE4900153F0900153E0FFDA
:10157000C394024003021647EF25E025E02408F853
:1015800012026AE47B107A27F9F8C31201ED504287
:10159000900153E0FB25E025E02408F812026AEFF1
:1015A00024F0FFEE34D8FEED34FFFDEC34FFFCEB0D
:1015B00025E025E0243BF582E43400F5831202AFF8
:1015C000900153E025E02410F87427F2087410F21B
:1015D0008032900153E0FB25E025E0243BF582E4D6
:1015E0003400F5831202C700000000EB25E025E07F
:1015F0002408F812026A900153E025E02410F8EE66
:10160000F208EFF2900153E0FB25E025E0244FF5CE
:1016100082E43400F5831202C700000000EB25E0ED
:10162000245BF582E43400F583E4F0A3F0900153E9
:10163000E0FF25E02410F8E2FC08E2FDEF25E024BD
:1016400014F8ECF208EDF2E025E02418F8E4F208D2
:10165000F2E004F002155B22E4900154F0A31202C0
:10166000C700000000E4900153F0900153E0FFC375
:10167000940140030217D79000FDE0600302174475
:10168000900103E09400900102E0940050030216E0
:10169000FFEF25E025E024E6F582E43400F583122F
:1016A000025EAB07AA06A905A804900153E025E055
:1016B00025E024C0F582E43400F58312025E1200B6
:1016C000AC9001551202AF900153E025E02496F54D
:1016D00082E43436F58374019325E0FFE49333FE0E
:1016E000E4FCFD900155120276D31201D75003029B
:1016F00017CE900154E0FF900153E0FE7401A8065C
:10170000088002C333D8FC4F900154F00217CE90EA
:101710000153E0FF25E02496F582E43436F583E4B6
:1017200093FC740193FDEF25E02439F9C3E39D197F
:10173000E39C50030217CE900154E0FF900153E068
:10174000FE7401A806088002C333D8FC4F900154F0
:10175000F00217CE300D44900153E0FD25E02496B1
:10176000F582E43436F58374019325E0FFE4933386
:10177000FEED25E02439F9C3E39F19E39E405F9015
:101780000154E0FF900153E0FE7401A806088002B6
:10179000C333D8FC4F900154F08043900153E0FFD5
:1017A00025E02496F582E43436F58374019324E22F
:1017B000FDE49334FFFCEF25E02439F9C3E39D19E0
:1017C000E39C401A900154E0FF900153E0FE740145
:1017D000A806088002C333D8FC4F900154F0900152
:1017E00053E004F002165A900154E09001A2F02256
:1017F00090007812025E9001541202AF90015412D0
:10180000025E900098E025E025E02464F582E4344F
:1018100000F5831202761200AC9001541202AF90D0
:10182000015412025E782412028212009F90015429
:101830001202AF782412026A900098E025E025E0B9
:101840002464F582E43400F5831202AF900098E03E
:1018500004F0E075F00584E5F0F090015412025EAA
:101860009000781202AF7B017A00798490007812A0
:10187000025E9001637420F0122FF6900080120235
:10188000AFD390010DE0940090010CE09400400C67
:1018900090008012025E9000881202AFE490015323
:1018A000F090008812025EAB07AA06A905A8049072
:1018B0000153E025E024BEF582E43436F583E49359
:1018C000FE740193FFEE3395E0FDFC1200BA780A36
:1018D000120211900153E0FB25E025E0248CF582F3
:1018E000E43400F5831202AFEB25E025E0248CF50B
:1018F00082E43400F58312025E90008812027612B0
:10190000009F9001541202AF900153E025E025E0C2
:10191000248CF582E43400F58312025E900080127C
:10192000027612009F9001611202AF9001651202CF
:10193000C70001000090015412025E12219C900128
:1019400053E025E025E02490F582E43400F583128D
:1019500002AF900153E004F0E0C394015003021879
:101960009190009412025EAB07AA069000801202CA
:101970005EC3EF9B7829F2EE9A18F27F0622E4FD0F
:10198000301526ED25E024A6F582E43436F583E40F
:1019900093FE740193FFED25E02453F582E43401B6
:1019A000F583EEF0A3EFF08024ED25E0248EF582A0
:1019B000E43436F583E493FE740193FFED25E024CF
:1019C00053F582E43401F583EEF0A3EFF0ED25E06A
:1019D0002447F582E43400F583E0FEA3E0FFED2523
:1019E000E0241DF9D3E39F19E39E401CED25E0247C
:1019F0001CF8E2FE08E2FFED25E02447F582E4341E
:101A000000F583EEF0A3EFF0ED25E02453F582E43A
:101A10003401F583E0C313FEA3E013FFED25E024BA
:101A20001DF9D3E39F19E39E504EED25E02453F5B5
:101A300082E43401F583E0FEA3E0FFED75F008A435
:101A40002434F8A60608A607ED25E02453F582E421
:101A50003401F583A3E025E0FF0582D582021583DA
:101A60001582E033FEED25E02447F582E43400F5ED
:101A700083EEF0A3EFF08042ED25E0249EF582E4B2
:101A80003436F583E493FE740193FFED25E0241DC5
:101A9000F9D3E39F19E39E4021ED25E02447F58229
:101AA000E43400F583E0C313FEA3E013FFED75F00B
:101AB00008A42434F8A60608A6070DED6402600306
:101AC000021970229001527407F0A3F0A31202C70A
:101AD000000000001239CC900152E0FF6020740138
:101AE0007E00A807088005C333CE33CED8F9FFADFA
:101AF000ACE4EF5D7008900152E014F080D99001E1
:101B000053E0FF602074017E00A807088005C333FE
:101B1000CE33CED8F9FFADAEE4EF5D70089001533F
:101B2000E014F080D9900152E0FF7401A80708800A
:101B300002C333D8FCF5AC900153E0FF7401A80751
:101B4000088002C333D8FCFFF5AD8FAE53AACF9007
:101B5000015CE5BAF053BA0F43BA10123960E49051
:101B60000152F0900153E02422F582E43401F58320
:101B7000E0FF1233019001581202AF900158120297
:101B80005E900154120276C31201ED500C90015880
:101B900012025E9001541202AF900152E004F0E094
:101BA000C3940240BE900154120276C000900154CA
:101BB00012025E78031201FED00012009F900154C1
:101BC0001202AF90015412025E90005F1202AF90B9
:101BD000015412025E78101201FE8FB3900154126C
:101BE000025E78081201FE8FB290015412025E8FDD
:101BF000B143AA3090015CE0F5BA75AC0375ADC095
:101C000075AEC0221239CC900158E5BAF053BA0F24
:101C100043BA10E4900152F0900152E0FFC39402E5
:101C20005017EF25E025E02400F81202F80000002C
:101C300000900152E004F080DF9001527405F075CD
:101C4000ABFF123960E4900153F0900153E0FFC301
:101C500094025047EF25E025E02400F8C00012026E
:101C60006AC004C005C006C007900153E02422F5F5
:101C700082E43401F583E0FF123301A804A905AA28
:101C800006AB07D007D006D005D00412009FD000C5
:101C90001202BB900153E004F080AFE4F5AB1239BF
:101CA00060E4900153F0900153E0FFC39402504769
:101CB000EF25E025E02400F8C00012026AC004C04D
:101CC00005C006C007900153E02422F582E43401E8
:101CD000F583E0FF123301A804A905AA06AB07D0DB
:101CE00007D006D005D0041200ACD0001202BB9081
:101CF0000153E004F080AF900152E014F0E0600383
:101D0000021C2FE4900153F0900153E0FBC39402B6
:101D1000502AA31202C700148200EB25E025E0241C
:101D200000F812028290015412025E1201459001E5
:101D300053E0242AF8A607E004F080CC900158E094
:101D4000F5BA22439F04E453C6DFE5C600B5C6F3E7
:101D500075830075820775FD0DE4E5FEF4FF75835C
:101D60000075820675FD0DE4E5FEB50704F59E805D
:101D700003759E0078100000D8FC53C6E043C608E7
:101D800043C680759607759705758300758204753F
:101D9000FD0DE5FD0404F58F75830075820375FD67
:101DA0000DE4E5FEF4FF75830075820275FD0DE418
:101DB000E5FEB50704F595800375958375BE0E5352
:101DC00092FE9001007F007E02E4F0A3DFFCDEFAC9
:101DD00078007F00E4F208DFFC78FFE4F6D8FD75B8
:101DE00081A4021E13020000022D40E493A3F8E434
:101DF00093A34003F68001F208DFF48029E493A363
:101E0000F85407240CC8C333C4540F4420C883407B
:101E100004F456800146F6DFE4800B01020408104A
:101E20002040809034BDE47E019360BCA3FF543F0A
:101E300030E509541FFEE493A360010ECF54C02582
:101E4000E060A840B8E493A3FAE493A3F8E493A372
:101E5000C8C582C8CAC583CAF0A3C8C582C8CAC5D6
:101E600083CADFE9DEE780BE122E631230EC123A3D
:101E70002A9000F7EFF0123851EF7003021F797FBC
:101E800001123881AD07AC06D390010DE0940090AB
:101E9000010CE094004010ECC4F854F0C868FCED6C
:101EA000C4540F48FD8030301810ECC4F854F0C80A
:101EB00068FCEDC4540F48FD801DC390004CE094B5
:101EC0001E90004BE09400500EECC4F854F0C8682B
:101ED000FCEDC4540F48FDAE04AF05120A18E4909F
:101EE0000152F0900152E0FFC39402507674017EDB
:101EF00000A807088005C333CE33CED8F9FF900081
:101F0000F8E0FDE4EF5D60407F06123881900152F9
:101F1000E025E02408F582E43401F583E0FCA3E049
:101F2000D39FEC9E400AE49000F7F0A3F012000368
:101F3000900152E025E02408F582E43401F583E4C1
:101F400075F0011200898013900152E025E0240809
:101F5000F582E43401F583E4F0A3F0900152E0044B
:101F6000F080809000F8E0FFA3E06F601C122DD499
:101F70009000F8E0A3F0A3E054F0600D7F07123862
:101F80008190010EEEF0A3EFF0229001527407F061
:101F9000FBA31202C7000000001239CC900152E0EE
:101FA000FF602074017E00A807088005C333CE338C
:101FB000CED8F9FFADACE4EF5D7008900152E014AB
:101FC000F080D9EB601B74017E00A803088005C374
:101FD00033CE33CED8F9FFADAEE4EF5D70031B8096
:101FE000E2900152E0FF7401A807088002C333D8D1
:101FF000FCF5AC7401A803088002C333D8FCFFF5DC
:10200000AD8FAE53AACF90015BE5BAF053BA0F4340
:10201000BA10123960E4900152F0900152E0FFC30F
:102020009401503B742A2FF582E43401F583E0FFDC
:102030001233019001571202AF90015712025E90C5
:102040000153120276C31201ED500C900157120297
:102050005E9001531202AF900152E004F080BB90F9
:102060000153120276C00090015312025E780312EF
:1020700001FED00012009F9001531202AF90015355
:1020800012025E9000F31202AF43AA3090015BE0AF
:10209000F5BA75AC0375ADC075AEC0229001531290
:1020A00002C700000000300079E4900152F0900176
:1020B00052E0FB242AF8E6FFE4FCFDFEEB25E025D8
:1020C000E02400F81202821200BA78071201FE9092
:1020D0000152E0FB25E025E02408F81202BBEB25C5
:1020E000E025E0243BF582E43400F58312025EEB48
:1020F00025E025E02408F8120282C31201ED401405
:10210000900152E025E025E02408F812026AEC4D27
:102110004E4F70037F0222900152E004F0E064020F
:10212000708C782CE6FFE4FCFDFE7820120282120F
:1021300000BA78071201FE78241202BB782412023A
:102140006AEC4D4E4F70037F0222E4900152F090F2
:102150000152E0FB242DF8E6FFE4FCFDFEEB25E058
:1021600025E0242AF81202821200BA78071201FE32
:102170009001531202AF90015312025E900152E09F
:10218000FB25E025E0242EF81202BBEB25E025E03C
:10219000242EF812026AEC4D4E4F70037F022290FB
:1021A0000152E004F0E0B401A67F052290015D1227
:1021B00002AFE47BE87A03F9F890015D12025E1247
:1021C000014590016D1202AFE47FE87E03FDFC90B3
:1021D000016D1202761200BAA804A905AA06AB077F
:1021E00090015D12025E1200AC9001711202AF907C
:1021F000016512025E90016D1202761200BA900122
:10220000691202AF90016112027690016912025EBA
:102210001201459001751202AF90016112025E90A9
:1022200001751202761200BAA804A905AA06AB0726
:1022300090016912025E1200AC9001791202AF9017
:10224000016512025E9001711202761200BA9001CD
:10225000691202AF900169120276C000C001C0028B
:10226000C003E47FE87E03FDFC9001791202761240
:1022700000BAD003D002D001D00012009F900169B3
:102280001202AF90016112027690016912025E1291
:10229000014590017D1202AFE47FE87E03FDFC90D2
:1022A00001751202761200BA90017D1202761200B8
:1022B0009F22E4FFD390010DE0940090010CE09484
:1022C00000400774FFF5F0120089D390010FE094ED
:1022D0000090010EE09400400774FFF5F0120089B1
:1022E000D3900117E09400900116E094004013741D
:1022F000FFF5F0120089900116E07002A3E0700271
:10230000D205900104E475F001120089E4FFEF2585
:10231000E02410F582E43401F583E0FCA3E0D394DB
:1023200000EC94004013EF25E02410F582E4340122
:10233000F58374FFF5F0120089EF25E02412F58291
:10234000E43401F583E0FCA3E0D39400EC94004076
:1023500033EF25E02412F582E43401F58374FFF5B0
:10236000F0120089EF25E02412F582E43401F583B0
:10237000E0FCA3E04C700D74012FF582E43401F50C
:10238000837401F00FEF64017084D3900115E09421
:1023900000900114E09400400774FFF5F0120089EA
:1023A000D3900103E09400900102E0940040077490
:1023B000FFF5F012008922E4900152F07824F6FF34
:1023C000123A61900152EFF0BFFF06782576048043
:1023D00004782576FF7826761EE408F6782976FFBD
:1023E000FFEF25E0248EF582E43436F583E493FC98
:1023F000740193FDEF75F008A42434F8A60408A630
:1024000005EF75F008A42436F8E4F608F6EF75F049
:1024100008A42438F8E4F608F6EF75F008A4243A86
:10242000F8E4F608F60FEFB402B7E4FFEF25E02476
:1024300096F582E43436F583E493FC740193FDEF62
:10244000C454F02454F8A60408A605EF25E0249609
:10245000F582E43436F58374019324E2FDE4933489
:10246000FFFCEFC454F02456F8A60408A605EFC4F8
:1024700054F02458F87600087664EFC454F0245AD7
:10248000F8E4F608F6EFC454F0245CF8E4F608F635
:10249000EFC454F0245EF8E4F608F6EFC454F024D8
:1024A00060F8E4F608F6EFC454F02462F8E4F60F9E
:1024B000EF6401600302241C75182422C0E0C0F000
:1024C000C083C082C0D075D008C2CFD20730CD0340
:1024D00002258930CB3A20CC3778A0A6CEE6FFC3C0
:1024E0009480402375F003EF902DF2120311120334
:1024F0003F8B198A1A891B7819E475F00112031DA4
:1025000012005EF5CE800978A0E62518F8E6F5CE33
:1025100030CC4378A0E6FFB4C006789676C08077CA
:10252000EFB4C10678967690806DEFB4C2067896C7
:1025300076918063EFC3948040107819E475F001C0
:1025400012031D12005EF5CE804D78A006E6251818
:10255000F8E6F5CE804120CB3E85CE1D78A0E6FF83
:102560007024E51DB410099001A3E0F45280802787
:10257000E51DB420089001A3E04280801A7896A659
:102580001D78A0068011EFC3940A500878A0E624B5
:1025900096F8A61D78A006D205D0D0D082D083D0E0
:1025A000F0D0E0327B077A079001521202C7000098
:1025B00000001239CCEB601B74017E00A803088078
:1025C00005C333CE33CED8F9FFADACE4EF5D700375
:1025D0001B80E2EA601B74017E00A802088005C32C
:1025E00033CE33CED8F9FFADAEE4EF5D70031A8081
:1025F000E2AF037401A807088002C333D8FCF5AC2E
:102600007401A802088002C333D8FCFFF5AD8FAE79
:1026100053AACF90015AE5BAF053BA0F43BA101239
:102620003960900126E0FF1233019001561202AF8B
:1026300090015612025E900152120276C31201ED11
:10264000500C90015612025E9001521202AF90019E
:1026500052120276C00090015212025E78031201FB
:10266000FED00012009F9001521202AF9001521250
:10267000025E9000A11202AF43AA3090015AE0F529
:10268000BA75AC0375ADC075AEC022E4900153F0CD
:10269000900153E0FF25E02414F8E2FC08E2FDEF8E
:1026A00025E02410F8E2FE08E2FFD39DEE9C401BDB
:1026B000E025E02414F8E2FC08E2FDC3EF9DFFEE04
:1026C0009CFEE4FCFDA31202AF800A9001541202AA
:1026D000C70000000090015412025E780712022524
:1026E0009001541202AF900153E025E02418F8E263
:1026F000FE08E2FFE4FCFD78071202259001581263
:1027000002AF9000F8E070247F03FEFDFC900154BE
:102710001202761200BA90015812027612009F78C7
:10272000021201FE9001581202AF801A9001541259
:10273000025E90015812027612009F78011201FE8B
:102740009001581202AF90015812025E78071201F0
:10275000FE900153E025E02418F8EEF208EFF2E0D5
:1027600004F0E06402600302268022E4900153F04A
:10277000900153E0FBC394014003022823EB25E0C2
:1027800025E024C0F582E43400F58312025EEB7587
:10279000F014A424D1F582E43400F583C083C08210
:1027A0009000E5E0D082D08375F00412031112028C
:1027B000AF9001551202C700000000A20A300601C6
:1027C000B35067E4900154F090015512025E9001FD
:1027D00053E075F014A424D1F582E43400F583C0ED
:1027E00083C082900154E0D082D08375F00412033C
:1027F0001112027612009F9001551202AF900154FF
:10280000E004F0E0B405C1E47B05FAF9F890015565
:1028100012025E120145900153E025E025E024E616
:10282000F582E43400F5831202AF900153E004F026
:102830000227609000E5E004F0E075F00584E5F023
:10284000F022123B279000FCEFF0122EECEF700309
:102850000229081229D77F02123881AD07AC06D3AE
:1028600090010DE0940090010CE09400400FED7891
:1028700005CEC313CE13D8F9FDAC06801DD390014D
:1028800003E09400900102E09400400EECC4F85480
:10289000F0C868FCEDC4540F48FDAE04AF05120C3F
:1028A000459000FDE0FFA3E06F606D122CABE4905B
:1028B0000152F0900152E0FFC39401505574017E23
:1028C00000A807088005C333CE33CED8F9FF9000A7
:1028D000FFE0FDE4EF5D60327F0812388190015225
:1028E000E025E02410F582E43401F583EEF0A3EF57
:1028F000F07F11123881900152E025E02412F58218
:10290000E43401F583EEF0A3EFF0900152E004F01F
:1029100080A19000FDE0A3F022C0E0C0F0C083C021
:1029200082C0D075D01053B9FD900121E0640170D0
:1029300045900181F0900181E0FFC394025025741D
:10294000222FF582E43401F583E0FF123301900178
:1029500081E025E025E02400F81202BB900181E02F
:1029600004F080D17F0112377843B901D2D89001A9
:10297000217402F08066900121E0B4021F900126CC
:10298000E0FF12330178201202BB7F011238DD43D1
:10299000B901D2D89001217406F08040900121E065
:1029A00064067038900181F0900181E0FFC39401CA
:1029B0005025742A2FF582E43401F583E0FF1233A9
:1029C00001900181E025E025E0242AF81202BB9065
:1029D0000181E004F080D1900121E4F0D0D0D082D8
:1029E000D083D0F0D0E032E4900153F0900153E076
:1029F000FFC394014003022A92EF25E02410F582E0
:102A0000E43401F583E0FEA3E04E6003022A8990DE
:102A10000153E025E02434F8E2FC08E2FDEF25E074
:102A20002432F8E2FE08E2FFC39DEE9C503FE02511
:102A3000E02435F8C3E29FFF18E29EFED3EF943204
:102A4000EE94004015E025E0241AF582E43401F507
:102A500083E475F0011200898013900153E025E0B2
:102A6000241AF582E43401F583E4F0A3F07F051223
:102A70003881900153E0FD25E0241AF582E4340109
:102A8000F583E0FAA3E0D39FEA9E400D74EA2DF5AA
:102A900082E43400F5837401F0900153E004F00205
:102AA00029DC22E4900152F090011EE054036032D0
:102AB000C2057F0A123881900116EEF0A3EFF09064
:102AC000011EE054FCF0C292789476000876967865
:102AD0009408E6161886067001164E60030080EF13
:102AE000D29290011EE0FF30E2179000FFE0540FF9
:102AF000FE602A7833F6E47824F690015204F080E0
:102B00001CEF30E3189000FFE0540FFF600FC45437
:102B1000F07833F6E47824F690015204F090011E28
:102B2000E054F3F0200F31900152E0602BC2057F9A
:102B30000A123881900116EEF0A3EFF07894760037
:102B4000087696C292789408E616188606700116E2
:102B50004E60030080EFD292229001521202C70011
:102B6000000000E4900156F01239CC900157E5BA0C
:102B7000F053BA0F43BA1078201202F80000000098
:102B80009001567405F075ABFF123960782012027F
:102B900082C000900126E0FF123301D00012009F96
:102BA00078201202BBE4F5AB123960782012026A79
:102BB000C004C005C006C007900126E0FF12330123
:102BC000A804A905AA06AB07D007D006D005D004F3
:102BD0001200AC78201202BB900156E014F0E070B5
:102BE000A59001521202C7001A5E007820120282DC
:102BF00090015212025E120145782CA607900157EF
:102C0000E0F5BA900126E090368593F5AB22E4908A
:102C10000152F0A3F0300717900106F0A37446F0BC
:102C20007F0C123881900114EEF0A3EFF0C207A2DE
:102C300006920A7827E6FF20E10330E20D900106B4
:102C4000E4F0A37446F0C2068038D390010DE094FE
:102C50000090010CE094005011900115E094009058
:102C60000114E09400500320050D900106E4F0A348
:102C70007446F0C206800B900106E4F0A37403F0E2
:102C8000D206300608E4FF1237B012390AA20A3021
:102C90000601B350179000FDE06004D20D800D7F57
:102CA00003123881900102EEF0A3EFF09000FDE0F6
:102CB0007008300D031235ACC20D22900153EFF0B5
:102CC00090011EE06003022D3FF9FFFE7401A8068B
:102CD000088002C333D8FCFD900153E05DFC9000F6
:102CE000FEE05D6C600D30010A200F0790011EE0D0
:102CF0004402F09000FEE05DB50513EE2404FC7480
:102D000001A804088002C333D8FC49F9800D74017E
:102D1000A806088002C333D8FC49F9900153E05D4E
:102D2000B5050F7401A806088002C333D8FC4FFF15
:102D30008011EE2404FD7401A805088002C333D875
:102D4000FC4FFF0EEE64017083E95F9000FFF022FC
:102D5000123A0C123AF8123B1A1223A71239AA128D
:102D6000381D123412D2AF751C01E51C24FE6022FE
:102D700024FE603114604314604D2405705A123AE9
:102D800048123A8F123AD2123AA6123A787F0212B9
:102D90003642D2D8123236900121E070FA12000E7B
:102DA000751C048036D2D8900121E070FA12208C74
:102DB0008F1C122BFE12000E802112350F8F1C1259
:102DC0000E621222A28014300003121E5812283202
:102DD00012329D751C048003751C01123B301212C7
:102DE00060808722900153EFF090011EE0600302A3
:102DF0002E62F9FFFE7401A806088002C333D8FCD6
:102E0000FD900153E05DFC9000F9E05D6C6007907F
:102E1000011EE04401F09000F9E05DB50513EE24D9
:102E200004FC7401A804088002C333D8FC49F9806B
:102E30000D7401A806088002C333D8FC49F990013B
:102E400053E05DB5050F7401A806088002C333D8AE
:102E5000FC4FFF8011EE2404FD7401A805088002D8
:102E6000C333D8FC4FFF0EEE64027089E95F900017
:102E7000FAF022781CE2FE08E2FF900153EEF0A384
:102E8000EFF0A3EEF0A3EFF07F01EF25E0241CF8B4
:102E9000E2FC08E2FDD3900154E09D900153E09CD8
:102EA000400FEF25E0241CF8E2FD08E2CDF0A3ED91
:102EB000F0EF25E0241CF8E2FC08E2FDC390015687
:102EC000E09D900155E09C500FEF25E0241CF8E2B6
:102ED000FD08E2CDF0A3EDF00FEFB402AD90015389
:102EE000E0FFA3E090004DCFF0A3EFF0900155E09C
:102EF000FFA3E090004BCFF0A3EFF022900153EF3F
:102F0000F0E4F99001547405F074017E00A8010802
:102F10008005C333CE33CED8F9FF900153E0FDE4F2
:102F2000EF5DFD9000FDE0FBE4EF5B6D7001E460A0
:102F300014900153E09000FDF0741D29F582E434F3
:102F400001F583E4F09000FDE070069001547402F6
:102F5000F0741D29F582E43401F583E004FFF0905C
:102F60000154E0FEEFC39E50037F0022741D29F53B
:102F700082E43401F5837405F009E9640170847F0B
:102F80000122FE0010FE0028FE0032FE0014FE00AA
:102F900034FE0018FE0036FE001CFE0038FE000065
:102FA000FE0020FE002AFE0008FE0024FE002E0186
:102FB00000C00100C40100C80100CA01007801007E
:102FC000800100880100900101A00101A10100F72A
:102FD0000100F80100FA0101A20100FC0100FD015D
:102FE00000FF01010801010401010601010C0101BA
:102FF0001401011601010C01011E01013201013A07
:1030000001014201014A90015F1202AF90015C127E
:1030100003369001641202C70000000090015F12A5
:10302000025E780412022590015F1202AF900163E4
:10303000E024FFFFE434FFFEE4FCFD12028F1200E7
:10304000BA90015F12027612009FC007900163E000
:10305000FFFBE4FAF9F8D00712014590016412026F
:10306000AF90016412025E90015C12032D120238CF
:1030700090016412025E78041201FE900164120253
:10308000AF90016412025E22E4FBFE90003AE0FD84
:1030900074222EF582E43401F583E090368593FCAA
:1030A000ED4C90003AF00EEEB402E0900063E0FFC9
:1030B000900126E090368593FDEF4D900063F0E49B
:1030C000FE9000A5E0FF742A2EF582E43401F5831A
:1030D000E090368593FDEF4D9000A5F00EEEB40123
:1030E000E0900063E0FF90003AE04FFF9000A5E021
:1030F0004FFB42D442F442E4F452DC22E490015308
:10310000F0900153E0FF25E02414F8E2FC08E2FD12
:10311000EF25E02410F8E2FE08E2FFC39DEE9C508C
:1031200043E025E02415F8C3E29FFF18E29EFE7CF1
:10313000007D64120371C006C007E025E02443F55A
:1031400082E43400F583E0FEA3E0FFFBAA06E4F985
:10315000F8D007D006120145D3EF940AEE94004050
:1031600003D21822900153E004F0E0B4029322E469
:10317000900153F0900153E0FFC39402505BEF25A0
:10318000E025E0243BF582E43400F583120276C0AA
:1031900000900153E025E025E02408F812026AD0EF
:1031A000001200AC9001541202AFE47FFF7EFFFDDD
:1031B000FC900154120276C31201ED40037F0222FB
:1031C00090015412025E900153E025E02410F8EEC5
:1031D000F208EFF2E004F0809B7F0622E4FF90000B
:1031E000F8F0A3F090011CF090010EF0A3F0900015
:1031F000FAF0A3F0F52325E02408F582E43401F584
:1032000083E4F0A3F0EF25E02443F582E43400F5F5
:1032100083E0FCA3E0FD90011FEC8DF01200890F0C
:10322000EFB402E190011FE0C313F0A3E013F090AC
:10323000011FE0FEA3E07802CEC313CE13D8F9F04D
:10324000EE90011FF0227827E6FF30E104D20080E3
:1032500002C200EF30E204D2018002C201E4900118
:1032600004F0A3F0900182F0A3F0A202300001B3B9
:103270005018A20092021231CC30000BE4FF123839
:10328000B00F121458800312000330080BE4FF1231
:1032900038B00F121458C208A203300101B3500411
:1032A000A20192033009051235ACC209229000FB3D
:1032B000E0FF9000FAE0FE6F601D900100E0FD90DD
:1032C00000FFE0FC6D60103000047824A606300199
:1032D000337833A604802D9000FAE0FE6F600D3045
:1032E00000227824A606E47833F68018900100E0E6
:1032F000FF9000FFE0FE6F600B3001087833A606F8
:10330000E47824F69000FAE0A3F09000FFE0A3F048
:1033100022EFC39404500553B9EF800343B910EF73
:103320006003B4040C78A2A6B708A6B608A6B580B8
:103330003DEF64016004EFB4050C78A2A6EB08A68B
:10334000EA08A6E98028EF64026004EFB4060C786E
:10335000A2A6F308A6F208A6F18013EF64036004A6
:10336000EFB4070A78A2A6FB08A6FA08A6F978A186
:1033700012025222E4900153F0900153E0FFC394F3
:10338000025047EF25E02418F8E2FE08E2FF7C0037
:103390007D64120371C006C007E025E02443F58276
:1033A000E43400F583E0FEA3E0FFFBAA06E4F9F8AD
:1033B000D007D006120145900153E025E0241CF807
:1033C000EEF208EFF2E004F080AF22E4900153F057
:1033D000900153E0FFC394015047EF25E02436F8F5
:1033E000E2FE08E2FF7C007D64120371C006C007A4
:1033F000E025E024A6F582E43400F583E0FEA3E0B6
:10340000FFFBAA06E4F9F8D007D0061201459001A7
:1034100053E025E02438F8EEF208EFF2E004F08003
:10342000AF22E4FFEF25E024AEF582E43436F583E5
:10343000E493FC740193FDEF25E02443F582E4342A
:1034400000F583ECF0A3EDF00FEFB402D7E4FFEF4B
:1034500025E024B6F582E43436F583E493FC740168
:1034600093FDEF25E024A6F582E43400F583ECF02B
:10347000A3EDF00FEFB401D722A907E4FFFEEEC3DE
:1034800094005014742E2EF582E43401F583E090FC
:103490003685934FFF0E80E6E96005EF42D4800445
:1034A000EFF452D4EFF4FE52F4EF42E4ED6005EF96
:1034B00042EC8003EE52ECEFF4FE52DCEB6005EFE1
:1034C00042808003EE52809001A3EFF022602B0037
:1034D000F7000000000000000000000000000000F5
:1034E00000000000000000000000000000000000DC
:1034F0000000000000000000000000004401220362
:1035000004FFFF44012600FFFFFF44012A06FFFFDE
:10351000FF44012EFFFFFFFF04A100000000009008
:1035200001527406F030001612315F900152EFF034
:10353000BF0205D208E0FF2212267B123364121765
:10354000E0900152EFF0BF0205D208E0FF22120620
:10355000FD900152EFF0BF0205D209E0FF221227D1
:103560005B1235601233BB123936900152E0FF22F4
:10357000E4FFEF25E02434F8E2FC08E2FDEF25E06B
:103580002432F8E2FA08E2FBD39DEA9C401EEF25C4
:10359000E02434F8E2FC08E2FDC3EB9DFDEA9CF870
:1035A000EF25E02436C8F208EDF2800AEF25E0248A
:1035B00036F8E4F208F20FEFB401B722900121E0EF
:1035C00070FAE4FF1203C7E4FF121065E49000FDF7
:1035D000F09000FFF0FF741D2FF582E43401F583B5
:1035E000E4F0EF25E02410F582E43401F583E4F003
:1035F000A3F0EF25E02412F582E43401F583E4F032
:10360000A3F00FEFB401CF22C0E0C0F0C083C082AE
:10361000C0D075D000C000C28D758C32758AEB9019
:103620000182E475F001120089C3900183E09414D3
:10363000900182E09400400D900104E4F0A3F0902A
:103640000182F0A3F0D000D0D0D082D083D0F0D0CF
:10365000E0327827A607EFB40208D202D200C203F4
:10366000C201EFB40408C202C200D203D201EFB417
:103670000608D202D200D203D201900106E4F0A3E0
:103680007446F07F0B12388190010CEEF0A3EFF03E
:10369000C206C20A220102040810204080F1002D57
:1036A000002D003C003C00B4003C003C003C007895
:1036B0000078003C003C03E803E8003C003C00B418
:1036C000015E006400640064006400640064000043
:1036D000000000000000E4FF9000FDF0A3F0A3F064
:1036E000A3F0C20D741D2FF582E43401F583E4F0DC
:1036F000EF25E02410F582E43401F583E4F0A3F033
:10370000EF25E02412F582E43401F583E4F0A3F020
:103710000FEFB401CF22E4FFFEEE75F008A42435CC
:10372000F8E624FDFD18E634FFFCEE25E0241DF943
:10373000C3E39D19E39C400D7401A806088002C3F1
:1037400033D8FC4FFF0EEEB402CF9001A1EFF02270
:103750009001561202AF90015A12025E9001561269
:103760000276D31201ED401090015A1202769001B8
:103770005612025E1200AC2290015612027690019F
:103780005A12025E1200AC2253BA0F43BA2075BB24
:103790007A75A9C0900063E0F5B4EF700AF5B375CF
:1037A000B27575B130800E9000A2E0F5B3A3E0F5DC
:1037B000B2A3E0F5B1900126E090368593F5AB22F7
:1037C000E4900121F053B9FD53B9DF43CC02C2D9D3
:1037D000439F10539FFD438760759262C28DEF70C7
:1037E0000675BD0D75BC01123ABD75BE0CD28C4379
:1037F00087030000000022E4FFFEEE75F008A42419
:1038000034F8E6FC08E6FDEE25E0241DF9C3E39D4F
:1038100019E39C400D7401A806088002C333D8FC4C
:103820004FFF0EEEB402D39001A0EFF02243F80850
:1038300075CD4053CC7F43CC4043CC2043CC104388
:10384000CC0453CCFD43CB0243CB0153CBBF43E865
:103850000853E5FC43E30243F50343900343ED03C0
:10386000227E059000F8E06F6007EFF0E490011C05
:10387000F09000F8E070027E02AF0690011CE004B8
:10388000F0C39F50037F002290011C7405F07F015C
:10389000227B017A00EFC394125020EF25E02487A9
:1038A000F582E43439F583E493FF7E00900106E06D
:1038B000FCA3E0FD120077AA06AB07AE02AF03221D
:1038C00053BA0F43BA2075BBFF75A95090003AE078
:1038D000F5B4EF7009F5B375B24E75B120229000C2
:1038E00060E0F5B3A3E0F5B2A3E0F5B12253BA0F5F
:1038F00043BA2075BB7A75A9C09000A5E0F5B4EF76
:103900007009F5B375B29C75B140229000F4E0F5F2
:10391000B3A3E0F5B2A3E0F5B122E4FF75BE0E4318
:103920009F100FEFB4FFFB439F02539FEFE4FF0F85
:10393000EFB4FFFB75BC0243B920759276E4F5BF86
:10394000D2D953CCFD22E47FD87ED6FDFC7820125C
:103950000282D31201ED5012E47FA87E61FDFC7853
:1039600020120282C31201ED5003D20F22C20F2295
:1039700075BF0F0000000000000000000000000004
:103980000000000000D2D853B9FD43B901E5B930B9
:10399000E1FBE4F5BF220002010102080301040576
:1039A000050106060701080109020A010B030C01C3
:1039B0000D0F0E040F01103C1102438901C28DD27C
:1039C000A953B8FDE4900182F0A3F0900104F0A3A4
:1039D000F0758C32758AEBD28CD2AF2253BAFEE5E9
:1039E000B920E006900121E06005E5B930E1FBE493
:1039F000F5BF53B9FD53B9FE900121F022EF6005E8
:103A000043D504800353D5FB53F5FB53E5FB43E358
:103A10000443ED04E490011EF0D29222E4F5E34366
:103A20009F10439F02FF0FEFB4FFFB539FEF75BE44
:103A30000EE4F5BFF5B97592762212196E1237E7CA
:103A40001237069000F8E070079001A0E0FB8005B7
:103A50009001A1E0FBAF032275AA3B53BAF343BA2E
:103A60000875AC0375ADC075AEC043B92053B9BF7E
:103A700022E4FFF582F5837440FEE493F42FFFA364
:103A8000EEB583F6227F0022E4900116F0A3F07FCA
:103A90000C123881900114EEF0A3EFF0D20522E46D
:103AA000FF1238B0121BF4121AB47F011238B01290
:103AB00014581231CC22E4FF1238DD123AE6121FFC
:103AC0007A7F011238DD1203C71236C622438901FC
:103AD000C28CC28FE4900182F0A3F0758CFB758AD2
:103AE000ED22E4FF123778122B491225947F011240
:103AF000377812106522E4FF782CE6FE742D2FF83B
:103B0000A6060FEFB401F1221230787B017D01E4AB
:103B1000FF1234697F011239ED2220C90CC2AFA80F
:103B200007A60408A605D2AF2222C2DA53D80F4353
:103B3000D8D0D2D8D2D9221216489001A2E0FF22C2
:103B4000122A9322FFFFFFFFFFFFFFFFFFFFFFFF90
:00000001FF
